{
  "_format": "hh-sol-artifact-1",
  "contractName": "SingleSwapToken",
  "sourceName": "contracts/SwapToken.sol",
  "abi": [
    {
      "inputs": [
        {
          "internalType": "address",
          "name": "token1",
          "type": "address"
        },
        {
          "internalType": "address",
          "name": "token2",
          "type": "address"
        },
        {
          "internalType": "uint256",
          "name": "amountIn",
          "type": "uint256"
        }
      ],
      "name": "swapExactInputSingle",
      "outputs": [
        {
          "internalType": "uint256",
          "name": "amountOut",
          "type": "uint256"
        }
      ],
      "stateMutability": "nonpayable",
      "type": "function"
    },
    {
      "inputs": [
        {
          "internalType": "address",
          "name": "token1",
          "type": "address"
        },
        {
          "internalType": "address",
          "name": "token2",
          "type": "address"
        },
        {
          "internalType": "uint256",
          "name": "amountOut",
          "type": "uint256"
        },
        {
          "internalType": "uint256",
          "name": "amountInMaximum",
          "type": "uint256"
        }
      ],
      "name": "swapExactOutputSingle",
      "outputs": [
        {
          "internalType": "uint256",
          "name": "amountIn",
          "type": "uint256"
        }
      ],
      "stateMutability": "nonpayable",
      "type": "function"
    },
    {
      "inputs": [],
      "name": "swapRouter",
      "outputs": [
        {
          "internalType": "contract ISwapRouter",
          "name": "",
          "type": "address"
        }
      ],
      "stateMutability": "view",
      "type": "function"
    }
  ],
  "bytecode": "0x608060405234801561001057600080fd5b50610912806100206000396000f3fe608060405234801561001057600080fd5b50600436106100415760003560e01c8063bc96faa914610046578063c31c9c071461006f578063ceb9201214610084575b600080fd5b6100596100543660046107ed565b610097565b60405161006691906108d3565b60405180910390f35b6100776101d8565b60405161006691906108aa565b6100596100923660046107b2565b6101f0565b60006100a58533308561030e565b6100b0853084610499565b60408051610100810182526001600160a01b03808816825286166020820152610bb88183015233606082015242608082015260a0810185905260c08101849052600060e082015290517fdb3e219800000000000000000000000000000000000000000000000000000000815273e592427a0aece92de3edee1f18e0157c058615649063db3e2198906101469084906004016108be565b602060405180830381600087803b15801561016057600080fd5b505af1158015610174573d6000803e3d6000fd5b505050506040513d601f19601f82011682018060405250810190610198919061082e565b9150828210156101cf576101c28673e592427a0aece92de3edee1f18e0157c058615646000610499565b6101cf863384860361061b565b50949350505050565b73e592427a0aece92de3edee1f18e0157c0586156481565b60006101fe8433308561030e565b61021d8473e592427a0aece92de3edee1f18e0157c0586156484610499565b60408051610100810182526001600160a01b03808716825285166020820152610bb88183015233606082015242608082015260a08101849052600060c0820181905260e082015290517f414bf38900000000000000000000000000000000000000000000000000000000815273e592427a0aece92de3edee1f18e0157c058615649063414bf389906102b39084906004016108be565b602060405180830381600087803b1580156102cd57600080fd5b505af11580156102e1573d6000803e3d6000fd5b505050506040513d601f19601f82011682018060405250810190610305919061082e565b95945050505050565b604080516001600160a01b0385811660248301528481166044830152606480830185905283518084039091018152608490920183526020820180516001600160e01b03167f23b872dd00000000000000000000000000000000000000000000000000000000178152925182516000948594938a169392918291908083835b602083106103ab5780518252601f19909201916020918201910161038c565b6001836020036101000a0380198251168184511680821785525050505050509050019150506000604051808303816000865af19150503d806000811461040d576040519150601f19603f3d011682016040523d82523d6000602084013e610412565b606091505b5091509150818015610440575080511580610440575080806020019051602081101561043d57600080fd5b50515b610491576040805162461bcd60e51b815260206004820152600360248201527f5354460000000000000000000000000000000000000000000000000000000000604482015290519081900360640190fd5b505050505050565b604080516001600160a01b038481166024830152604480830185905283518084039091018152606490920183526020820180516001600160e01b03167f095ea7b3000000000000000000000000000000000000000000000000000000001781529251825160009485949389169392918291908083835b6020831061052e5780518252601f19909201916020918201910161050f565b6001836020036101000a0380198251168184511680821785525050505050509050019150506000604051808303816000865af19150503d8060008114610590576040519150601f19603f3d011682016040523d82523d6000602084013e610595565b606091505b50915091508180156105c35750805115806105c357508080602001905160208110156105c057600080fd5b50515b610614576040805162461bcd60e51b815260206004820152600260248201527f5341000000000000000000000000000000000000000000000000000000000000604482015290519081900360640190fd5b5050505050565b604080516001600160a01b038481166024830152604480830185905283518084039091018152606490920183526020820180516001600160e01b03167fa9059cbb000000000000000000000000000000000000000000000000000000001781529251825160009485949389169392918291908083835b602083106106b05780518252601f199092019160209182019101610691565b6001836020036101000a0380198251168184511680821785525050505050509050019150506000604051808303816000865af19150503d8060008114610712576040519150601f19603f3d011682016040523d82523d6000602084013e610717565b606091505b5091509150818015610745575080511580610745575080806020019051602081101561074257600080fd5b50515b610614576040805162461bcd60e51b815260206004820152600260248201527f5354000000000000000000000000000000000000000000000000000000000000604482015290519081900360640190fd5b80356001600160a01b03811681146107ad57600080fd5b919050565b6000806000606084860312156107c6578283fd5b6107cf84610796565b92506107dd60208501610796565b9150604084013590509250925092565b60008060008060808587031215610802578081fd5b61080b85610796565b935061081960208601610796565b93969395505050506040820135916060013590565b60006020828403121561083f578081fd5b5051919050565b6001600160a01b0380825116835280602083015116602084015262ffffff60408301511660408401528060608301511660608401526080820151608084015260a082015160a084015260c082015160c08401528060e08301511660e0840152505050565b6001600160a01b0391909116815260200190565b61010081016108cd8284610846565b92915050565b9081526020019056fea2646970667358221220d49d9a6f1f781e0ece16cacbd8e3cf79db3668ed395b9a435f18be17b5a0ce5764736f6c63430007060033",
  "linkReferences": {},
  "deployedLinkReferences": {}
}