{
  "_format": "hh-sol-artifact-1",
  "contractName": "UserStorageData",
  "sourceName": "contracts/UserStorageData.sol",
  "abi": [
    {
      "inputs": [
        {
          "internalType": "address",
          "name": "poolAddress",
          "type": "address"
        },
        {
          "internalType": "address",
          "name": "tokenAddress0",
          "type": "address"
        },
        {
          "internalType": "address",
          "name": "tokenAddress1",
          "type": "address"
        }
      ],
      "name": "addToBlockchain",
      "outputs": [],
      "stateMutability": "nonpayable",
      "type": "function"
    },
    {
      "inputs": [],
      "name": "getAllTransactions",
      "outputs": [
        {
          "components": [
            {
              "internalType": "address",
              "name": "caller",
              "type": "address"
            },
            {
              "internalType": "address",
              "name": "poolAddress",
              "type": "address"
            },
            {
              "internalType": "address",
              "name": "tokenAddress0",
              "type": "address"
            },
            {
              "internalType": "address",
              "name": "tokenAddress1",
              "type": "address"
            }
          ],
          "internalType": "struct UserStorageData.TransactionStruck[]",
          "name": "",
          "type": "tuple[]"
        }
      ],
      "stateMutability": "view",
      "type": "function"
    },
    {
      "inputs": [
        {
          "internalType": "uint256",
          "name": "",
          "type": "uint256"
        }
      ],
      "name": "transactions",
      "outputs": [
        {
          "internalType": "address",
          "name": "caller",
          "type": "address"
        },
        {
          "internalType": "address",
          "name": "poolAddress",
          "type": "address"
        },
        {
          "internalType": "address",
          "name": "tokenAddress0",
          "type": "address"
        },
        {
          "internalType": "address",
          "name": "tokenAddress1",
          "type": "address"
        }
      ],
      "stateMutability": "view",
      "type": "function"
    }
  ],
  "bytecode": "0x608060405234801561001057600080fd5b50610508806100206000396000f3fe608060405234801561001057600080fd5b50600436106100415760003560e01c806327506f5314610046578063890cb4e9146100645780639ace38c214610079575b600080fd5b61004e61009c565b60405161005b9190610466565b60405180910390f35b6100776100723660046102e9565b61013c565b005b61008c610087366004610336565b610276565b60405161005b9493929190610428565b60606000805480602002602001604051908101604052809291908181526020016000905b828210156101335760008481526020908190206040805160808101825260048602909201805473ffffffffffffffffffffffffffffffffffffffff9081168452600180830154821685870152600283015482169385019390935260039091015416606083015290835290920191016100c0565b50505050905090565b6040805160808101825233815273ffffffffffffffffffffffffffffffffffffffff948516602082019081529385169181019182529184166060830190815260008054600181018255908052925160049093027f290decd9548b62a8d60345a988386fc84ba6bc95484008f6362f93160ef3e563810180549487167fffffffffffffffffffffffff000000000000000000000000000000000000000095861617905593517f290decd9548b62a8d60345a988386fc84ba6bc95484008f6362f93160ef3e5648501805491871691851691909117905590517f290decd9548b62a8d60345a988386fc84ba6bc95484008f6362f93160ef3e56584018054918616918416919091179055517f290decd9548b62a8d60345a988386fc84ba6bc95484008f6362f93160ef3e5669092018054929093169116179055565b6000818154811061028657600080fd5b6000918252602090912060049091020180546001820154600283015460039093015473ffffffffffffffffffffffffffffffffffffffff9283169450908216928216911684565b80356102d8816104b2565b92915050565b80356102d8816104c9565b6000806000606084860312156102fe57600080fd5b600061030a86866102cd565b935050602061031b868287016102cd565b925050604061032c868287016102cd565b9150509250925092565b60006020828403121561034857600080fd5b600061035484846102de565b949350505050565b600061036883836103d8565b505060800190565b61037981610491565b82525050565b600061038a82610484565b6103948185610488565b935061039f8361047e565b8060005b838110156103cd5781516103b7888261035c565b97506103c28361047e565b9250506001016103a3565b509495945050505050565b805160808301906103e98482610370565b5060208201516103fc6020850182610370565b50604082015161040f6040850182610370565b5060608201516104226060850182610370565b50505050565b608081016104368287610370565b6104436020830186610370565b6104506040830185610370565b61045d6060830184610370565b95945050505050565b60208082528101610477818461037f565b9392505050565b60200190565b5190565b90815260200190565b600073ffffffffffffffffffffffffffffffffffffffff82166102d8565b90565b6104bb81610491565b81146104c657600080fd5b50565b6104bb816104af56fea2646970667358221220beacb32404ce802a5f1a5c4687d4773299d5ce9c9fc1f0dfe11cbd4e2ec93d3564736f6c63430007060033",
  "linkReferences": {},
  "deployedLinkReferences": {}
}